:020000040800F2
:10000000005000207504000855040008570400083B
:10001000590400085B0400085D04000800000000AB
:10002000000000000000000000000000C1120008F5
:100030005F0400080000000061130008A513000819
:10004000BD040008BD040008BD040008BD0400088C
:10005000BD040008BD040008BD040008BD0400087C
:10006000BD040008BD040008BD040008BD0400086C
:10007000BD040008BD040008BD040008BD0400085C
:10008000BD040008BD040008BD040008BD0400084C
:10009000BD040008BD040008BD040008BD0400083C
:1000A000BD04000861040008BD040008BD04000888
:1000B000BD040008BD040008BD040008BD0400081C
:1000C000BD040008BD040008BD040008BD0400080C
:1000D000BD040008BD040008BD040008BD040008FC
:1000E000BD040008BD040008BD04000800000000B5
:1000F0000000000000000000000000000000000000
:0C01000000000000000000005FF808F1A3
:100110000348044B834202D0034B03B11847704796
:100120001000002010000020000000000548064BD1
:100130001B1AD90F01EBA301491002D0034B03B1E5
:100140001847704710000020100000200000000039
:1001500010B5064C237843B9FFF7DAFF044B13B10F
:100160000448AFF300800123237010BD100000206D
:10017000000000002C1F000808B5054B1BB1054905
:100180000548AFF30080BDE80840FFF7CFBF00BFD0
:1001900000000000140000202C1F000808B50821F2
:1001A000034800F021FB4FF4FA7000F0F7FFF6E788
:1001B000000C014008B52021034800F015FB4FF466
:1001C000FA7000F0EBFFF6E7000C0140034B036010
:1001D000034B0B6080231360704700BF3402002084
:1001E0003400002010B58EB0124C0DF11C0CA64648
:1001F000BEE80F00ACE80F009EE807008CE807009F
:10020000002107A800F097FF0B4B1860EE4604F1A1
:100210001C0CBCE80F00AEE80F009CE807008EE85D
:1002200007000021684600F086FF044B18600EB0FE
:1002300010BD00BF441F00082C000020300000202B
:1002400070B588B000240494059406940794234B59
:100250009A6942F010029A619A6902F010020092C3
:10026000009A9A6942F020029A619A6902F020028B
:100270000192019A9A6942F004029A619A6902F025
:1002800004020292029A9A6942F008029A619B69FA
:1002900003F008030393039B114D224608212846CF
:1002A00000F09CFA01223021284600F097FA08233A
:1002B00004931126059606940224079404A928465F
:1002C00000F07AF9302304930596012306930794EE
:1002D00004A9284600F070F908B070BD0010024073
:1002E000000C014008B50268034B9A4200D008BDDB
:1002F00000F0F8F8FBE700BF002C014072B6FEE703
:1003000000B591B02822002106A801F0BDFD002310
:10031000019302930393049305930223069301230D
:100320000A9310230B9306A800F07EFA68B90F23F6
:1003300001930021029103910491059101A800F01D
:10034000A5FC20B911B05DF804FBFFF7D7FFFFF75C
:10035000D5FF08B500F0B4F8FFF7D2FFFFF770FF44
:10036000FFF740FF00F0E2FEFEE7000000B583B0BB
:10037000114B9A6942F001029A619A6902F00102F6
:100380000092009ADA6942F08052DA61DB6903F088
:1003900080530193019B00220F216FF0010000F0B8
:1003A000C5F8064A536823F0E06343F000735360D6
:1003B00003B05DF804FB00BF0010024000000140E4
:1003C00030B589B004461E4B9A6942F400629A61C6
:1003D0009B6903F400630193019B02A903A800F049
:1003E00021FD00F00FFD174AA2FB00239B0C013BEF
:1003F0001548164A026040F2E732C26043600023AB
:1004000003618360836100F05DFE054610B12846FC
:1004100009B030BD0C4800F025FD05460028F6D196
:10042000192000F0BBF80F2C01D90125EFE70022BD
:100430002146192000F07AF8054B1C60E7E700BF61
:100440000010024083DE1B4388020020002C014084
:1004500008000020FEE7FEE7FEE7FEE7FEE7704744
:1004600008B5024800F036FD08BD00BF8802002034
:1004700070470000FFF7FCFF0B480C490C4A0023B3
:1004800002E0D458C4500433C4188C42F9D3094A4A
:10049000094C002301E013600432A242FBD301F0B7
:1004A000CFFCFFF756FF704700000020100000202F
:1004B000D01F00081000002020100020FEE70000E0
:1004C00008B5074A136843F010031360032000F0D7
:1004D0001BF80F20FFF774FFFFF748FF002008BD4F
:1004E00000200240034A1168034B1B780B44136041
:1004F000704700BFD002002004000020014B1868A4
:10050000704700BFD0020020074AD36823F4E0639D
:100510001B041B0C000200F4E060034343F0BF63C4
:1005200043F40033D360704700ED00E000B5194B91
:10053000DB68C3F30223C3F1070CBCF1040F28BF2F
:100540004FF0040C03F1040EBEF1060F18D9033B63
:100550004FF0FF3E0EFA0CFC21EA0C0199400EFA16
:1005600003FE22EA0E020A4300280BDB1201D2B27C
:1005700000F1604000F5614080F800235DF804FB65
:100580000023E5E700F00F001201D2B2024B1A542B
:10059000F4E700BF00ED00E014ED00E0002807DB09
:1005A00000F01F02400901239340024A42F8203024
:1005B000704700BF00E100E070B582B00024A4469F
:1005C000A6E0804DAB4210D007D97F4DAB420CD096
:1005D00005F58035AB4208D013E0A5F58015AB4298
:1005E00003D005F57025AB4207D18B68002B58D09E
:1005F000012B51D04261082403E0A5F58015AB42E0
:10060000F3D0BEF1FF0F4ED80646BEF1FF0F4CD817
:100610004FEA8C0233680F25954023EA050304FA5C
:1006200002F2134333604B6813F0805F6ED0674B68
:100630009A6942F001029A619B6903F001030193F8
:10064000019B4FEA9C02951C614B53F825600CF00E
:100650000305AD000F23AB4026EA03065D4B98422D
:1006600029D003F58063984200F08E8003F5806303
:10067000984200F08B8003F58063984219D00423E0
:100680001AE0CC68BDE7CC680434BAE7CC6808341B
:10069000B7E7CC680C34B4E702610824B1E7002462
:1006A000AFE70424ADE7061DAFE7ACF10802920006
:1006B000B0E7032300E00023AB4033430232444D54
:1006C00045F822304B6813F4801F61D0424A93688A
:1006D00043EA0E0393604B6813F4001F5ED03E4A5A
:1006E000D36843EA0E03D3604B6813F4003F5BD03A
:1006F000394A536843EA0E0353604B6813F4803F52
:1007000058D0354A136843EA0E0313600CF1010C0C
:100710000B6833FA0CF253D0012202FA0CF203EA0E
:10072000020E32EA0303F1D14B68122B3FF649AFB8
:10073000122B3FF666AF01A555F823F0EB05000834
:10074000830600088D0600089F06000803060008BF
:100750000306000803060008030600080306000855
:100760000306000803060008030600080306000845
:100770000306000803060008030600080306000835
:100780008706000893060008012395E7022393E7F4
:10079000114A936823EA0E0393609CE70E4AD368DC
:1007A00023EA0E03D3609FE70B4A536823EA0E0344
:1007B0005360A2E7084A136823EA0E031360A5E713
:1007C00002B070BD00002210000031100010024085
:1007D0000000014000080140000401400AB101612D
:1007E0007047090401617047C36801EA030221EA06
:1007F000030141EA024101617047000082B0084BE9
:100800001B68084AA2FB03235B0A00FB03F3019366
:1008100000BF019B5A1E0192002BF9D102B0704714
:1008200000000020D34D6210002800F0F18170B567
:1008300082B00446036813F0010F2CD0994B5B681B
:1008400003F00C03042B1DD0964B5B6803F00C03E4
:10085000082B12D06368B3F5803F41D0002B55D1EF
:1008600003F1804303F504331A6822F480321A60DE
:100870001A6822F480221A6037E08A4B5B6813F40E
:10088000803FE7D0874B1B6813F4003F03D06368B9
:10089000002B00F0BF81236813F0020F75D0814B4D
:1008A0005B6813F00C0F5FD07E4B5B6803F00C03AA
:1008B000082B54D02369002B00F08A807A4B012248
:1008C0001A60FFF71BFE0546764B1B6813F0020FFC
:1008D00075D1FFF713FE401B0228F5D903209EE1D6
:1008E000704A136843F480331360636843B3FFF7BF
:1008F00005FE05466B4B1B6813F4003FCBD1FFF799
:10090000FDFD401B6428F5D9032088E1B3F5A02F35
:1009100009D0644B1A6822F480321A601A6822F4F3
:1009200080221A60E1E703F18043A3F53C331A68A3
:1009300042F480221A601A6842F480321A60D4E7C6
:10094000FFF7DCFD0546574B1B6813F4003FA2D0B0
:10095000FFF7D4FD401B6428F5D903205FE1514B1C
:100960005B6813F4803FA5D14E4B1B6813F0020F58
:1009700003D02369012B40F04F814A4A136823F0CA
:10098000F803616943EAC1031360236813F0080F99
:1009900033D0A369002B5CD0434B0122C3F88024E1
:1009A000FFF7ACFD05463F4B5B6A13F0020F21D108
:1009B000FFF7A4FD401B0228F5D903202FE1394A97
:1009C000136823F0F803616943EAC1031360DCE7AD
:1009D000354B00221A60FFF791FD0546314B1B682D
:1009E00013F0020FD1D0FFF789FD401B0228F5D983
:1009F000032014E10120FFF701FF236813F0040F27
:100A000000F09680274BDB6913F0805F34D1254BD3
:100A1000DA6942F08052DA61DB6903F080530193B6
:100A2000019B0125214B1B6813F4807F26D0E368CE
:100A3000012B3DD0002B53D103F1804303F5043348
:100A40001A6A22F001021A621A6A22F004021A6279
:100A500033E0154B0022C3F88024FFF74FFD054615
:100A6000104B5B6A13F0020FC7D0FFF747FD401B26
:100A70000228F5D90320D2E00025D3E70B4A1368FA
:100A800043F480731360FFF739FD0646074B1B687C
:100A900013F4807FCBD1FFF731FD801B6428F5D99B
:100AA0000320BCE000100240000042420070004001
:100AB0005F4A136A43F001031362E36833B3FFF73D
:100AC0001DFD06465A4B1B6A13F0020F2FD1FFF78C
:100AD00015FD801B41F288339842F3D903209EE034
:100AE000052B09D0524B1A6A22F001021A621A6AC7
:100AF00022F004021A62E0E74D4B1A6A42F0040247
:100B00001A621A6A42F001021A62D6E7FFF7F6FC8F
:100B10000646474B1B6A13F0020F08D0FFF7EEFCA6
:100B2000801B41F288339842F3D9032077E0E5B97E
:100B3000E369002B72D03E4A526802F00C02082A88
:100B400056D0022B17D03B4B00221A66FFF7D6FC7B
:100B50000446374B1B6813F0007F47D0FFF7CEFCED
:100B6000001B0228F5D9032059E0314AD36923F04C
:100B70008053D361DCE72F4B00221A66FFF7BEFCDF
:100B800005462B4B1B6813F0007F06D0FFF7B6FC21
:100B9000401B0228F5D9032041E0236AB3F5803FCA
:100BA0001AD023494B6823F47413226A606A024303
:100BB00013434B601F4B01221A66FFF79FFC04464C
:100BC0001B4B1B6813F0007F0ED1FFF797FC001B37
:100BD0000228F5D9032022E0154A536823F4003394
:100BE000A1680B435360DCE7002018E0002016E00A
:100BF000012B16D00E4B5B6803F48031226A9142C0
:100C000011D103F47013626A93420ED1002006E002
:100C100001207047012002E0012000E0002002B026
:100C200070BD0120FBE70120F9E70120F7E700BFD5
:100C300000100240000042420F4B5B6803F00C02C0
:100C4000082A01D00D487047C3F383420C49885CE1
:100C500013F4803F0BD0084B5B68C3F34043094A51
:100C6000D35C064A02FB00F0B0FBF3F07047064B82
:100C700003FB00F0704700BF0010024000127A0032
:100C8000AC1F0008BC1F000800093D00002800F050
:100C9000A08070B50D460446524B1B6803F0070355
:100CA0008B420BD24F4A136823F007030B431360A8
:100CB000136803F007038B4240F08D80236813F024
:100CC000020F17D013F0040F04D0474A536843F4BF
:100CD000E0635360236813F0080F04D0424A53685E
:100CE00043F460535360404A536823F0F003A16813
:100CF0000B435360236813F0010F31D06368012B5D
:100D000020D0022B25D0384A126812F0020F64D08E
:100D100035494A6822F0030213434B60FFF7EEFBAC
:100D20000646314B5B6803F00C036268B3EB820F3D
:100D300016D0FFF7E3FB801B41F288339842F0D9CD
:100D4000032045E0284A126812F4003FE0D1012058
:100D50003EE0254A126812F0007FD9D1012037E029
:100D6000204B1B6803F00703AB420AD91D4A1368E6
:100D700023F007032B431360136803F00703AB4210
:100D80002DD1236813F0040F06D0174A536823F4BB
:100D9000E063E1680B435360236813F0080F07D04A
:100DA000114A536823F46053216943EAC103536035
:100DB000FFF742FF0C4B5B68C3F303130B4AD35C92
:100DC000D8400B4B18600B4B1868FFF7F9FA00205E
:100DD00070BD012070470120FAE70120F8E70120EB
:100DE000F6E700BF0020024000100240941F0008F8
:100DF0000000002008000020014B1868704700BF69
:100E00000000002008B5FFF7F7FF044B5B68C3F351
:100E1000C223034AD35CD84008BD00BF0010024083
:100E2000A41F00080F2303600B4B5A6802F0030253
:100E300042605A6802F0F00282605A6802F4E0628E
:100E4000C2605B68DB0803F4E0630361034B1B686B
:100E500003F007030B6070470010024000200240BF
:100E60007047000090F83D30DBB2012B27D1022300
:100E700080F83D300268D36843F00103D360036813
:100E8000114A934210D0B3F1804F0DD0A2F59432A5
:100E9000934209D002F58062934205D01A6842F06D
:100EA00001021A60002070479A6802F00702062AC1
:100EB00007D01A6842F001021A6000207047012032
:100EC00070470020704700BF002C014070477047FA
:100ED0007047704710B5044603681A6912F0020F94
:100EE00011D0DA6812F0020F0DD06FF002021A6111
:100EF0000123037703689B6913F0030F70D0FFF79A
:100F0000E6FF0023237723681A6912F0040F12D03A
:100F1000DA6812F0040F0ED06FF004021A61022397
:100F2000237723689B6913F4407F5FD02046FFF747
:100F3000CEFF0023237723681A6912F0080F12D01E
:100F4000DA6812F0080F0ED06FF008021A6104235D
:100F500023772368DB6913F0030F4ED02046FFF799
:100F6000B6FF0023237723681A6912F0100F12D0FE
:100F7000DA6812F0100F0ED06FF010021A61082319
:100F800023772368DB6913F4407F3DD02046FFF7C9
:100F90009EFF0023237723681A6912F0010F03D004
:100FA000DA6812F0010F36D123681A6912F0800F47
:100FB00003D0DA6812F0800F34D123681A6912F076
:100FC000400F03D0DA6812F0400F32D123681A695B
:100FD00012F0200F03D0DA6812F0200F30D110BDCC
:100FE000FFF774FF2046FFF773FF8AE72046FFF7FD
:100FF0006DFF2046FFF76CFF9BE72046FFF766FF7B
:101000002046FFF765FFACE72046FFF75FFF20466D
:10101000FFF75EFFBDE76FF001021A612046FFF7A0
:1010200061F9C1E76FF080021A61204600F077F89D
:10103000C3E76FF040021A612046FFF74AFFC5E799
:101040006FF020021A61204600F068F8C7E7000040
:1010500003681B4A90420AD0B0F1804F07D0A2F536
:101060009432904203D002F58062904203D123F083
:1010700070034A681343124A90420AD0B0F1804F7D
:1010800007D0A2F59432904203D002F580629042DC
:1010900003D123F44073CA68134323F080034A69E1
:1010A000134303608B68C3620B688362044B9842EE
:1010B00002D00123436170470B690363F9E700BF66
:1010C000002C014040B310B5044690F83D30F3B118
:1010D000022384F83D30214651F8040BFFF7B8FF96
:1010E000012384F8463084F83E3084F83F3084F899
:1010F000403084F8413084F8423084F8433084F83A
:10110000443084F8453084F83D30002010BD80F82C
:101110003C30FFF7A5FEDBE70120704770477047C2
:10112000842801D0033070470020704708B500F0D4
:10113000CBFC002008BD2DE9F04387B00E46446982
:10114000C4B18569B5B14768D0F80080D0F8109077
:10115000B0F90800FFF7E4FF0295019400903346D0
:101160004A464146384600F041FC0590059807B0D4
:10117000BDE8F083446805680769B0F90800FFF727
:10118000CFFF05AB019300903346BAB22946204603
:1011900000F066FC0128E9D00020E8E708B500B9B6
:1011A000012000F0DBFD002008BD00F108034360D2
:1011B0004FF0FF328260C360036100230360704719
:1011C00000230361704743684B609A688A605160EE
:1011D00099600861036801330360704730B40D689B
:1011E000B5F1FF3F11D000F108031C465B681A6897
:1011F000AA42FAD963684B6099608C6061600861AB
:1012000003680133036030BC70470469F2E7036987
:10121000416882688A60416851605A68824206D09B
:10122000002202611A68013A1A60186870478268E1
:101230005A60F5E782B0002301930D4B1B68B3F1B0
:10124000FF3F08D04FF0A00383F31188BFF36F8FE7
:10125000BFF34F8FFEE74FF0A00383F31188BFF376
:101260006F8FBFF34F8F019B002BFCD002B07047F4
:101270000C00002006480068006880F3088862B609
:1012800061B6BFF34F8FBFF36F8F00DF00BF000069
:1012900008ED00E04FF0807340F8043C21F00101BC
:1012A00040F8081C034B40F80C3C40F8202C403818
:1012B000704700BF35120008000000000000000069
:1012C000074B19680868B0E8F00F80F30988BFF38E
:1012D0006F8F4FF0000080F311884EF00D0E7047B5
:1012E000F40E00204FF0A00383F31188BFF36F8F3B
:1012F000BFF34F8F0B4A136801331360012B00D0EB
:1013000070474FF0E023D3F8043D13F0FF0FF7D000
:101310004FF0A00383F31188BFF36F8FBFF34F8F9C
:10132000FEE700BF0C000020094B1B6843B94FF0DB
:10133000A00383F31188BFF36F8FBFF34F8FFEE7D6
:10134000013B034A13600BB983F31188704700BF58
:101350000C00002000000000000000000000000061
:10136000EFF30980BFF36F8F0D4B1A6820E9F00F80
:1013700010602DE908404FF0A00080F3118800F0C4
:1013800013FD4FF0000080F31188BDE80840196894
:101390000868B0E8F00F80F30988BFF36F8F7047DB
:1013A000F40E002008B54FF0A00383F31188BFF3BB
:1013B0006F8FBFF34F8F00F0C9FB28B14FF0E023D0
:1013C0004FF08052C3F8042D002383F3118808BD29
:1013D0004FF0E022002313619361054B1B68054920
:1013E000A1FB03139B09013B536107231361704762
:1013F00000000020D34D621010B582B02A4B1A783D
:10140000D2B20192FF221A701B78DBB28DF8033042
:101410009DF8033003F0A003244A1370244B0722E5
:101420001A6009E0224A1368013B13609DF80330FB
:101430005B00DBB28DF803309DF8033013F0800FB2
:10144000F0D11B4B1B68042B08D04FF0A00383F393
:101450001188BFF36F8FBFF34F8FFEE71B02144A53
:10146000136003F4E0631360019BDBB20E4A137058
:101470004FF0E023D3F8202D42F0F072C3F8202D76
:10148000D3F8202D42F06042C3F8202DFFF7A0FFD3
:101490000024084B1C60FFF7EDFE00F085FCFFF711
:1014A000C9FE204602B010BD00E400E0D4020020D6
:1014B000D80200200C000020124A12F0070F1ED0A4
:1014C000D11D21F00701C1F5406313440A460E48BF
:1014D0000260002141601344083B23F007030B48DE
:1014E000036059601960991A51601360084B1960C4
:1014F000084B1960084B4FF000421A6070474FF4D8
:101500004063E4E7E0020020EC0E0020DC02002053
:10151000E80E0020E40E0020E00E0020154B1A46D5
:101520001B688342FBD3516802EB010C844509D050
:10153000416800EB010C634509D00360904218D06C
:10154000106070474068014451601046F0E710B4E5
:10155000094C2468A3420AD05B68194441601368AF
:101560001B680360904200D0106010BC704704609C
:10157000F8E77047EC0E0020DC02002070B505464D
:1015800000F0DCFA344B1B68A3B1344B1B681D42DE
:101590004AD135B1083515F0070F02D025F00705FF
:1015A0000835002D42D02E4B1B68AB424DD32D4A3F
:1015B000146804E0FFF780FFE7E722461C466368F3
:1015C000AB4202D22368002BF7D1234B1B68A34206
:1015D0003DD0166808362368136063685B1B102BC8
:1015E00010D9601910F0070F08D04FF0A00383F353
:1015F0001188BFF36F8FBFF34F8FFEE743606560C5
:10160000FFF78CFF626816490B689B1A0B6016493E
:1016100009688B4201D214490B60104B1B681343BD
:1016200063600023236002E0002600E0002600F053
:1016300019FB16F0070F0CD04FF0A00383F31188AD
:10164000BFF36F8FBFF34F8FFEE70026EFE7002653
:10165000EDE7304670BD00BFDC020020E00E002048
:10166000E40E0020EC0E0020E80E002080B338B518
:101670000446A0F1080550F8043C164A12681342CB
:1016800008D14FF0A00383F31188BFF36F8FBFF32E
:101690004F8FFEE750F8081C41B14FF0A00383F3D1
:1016A0001188BFF36F8FBFF34F8FFEE723EA02036A
:1016B00040F8043C00F042FA54F8041C064A13684F
:1016C0000B4413602846FFF729FF00F0CBFA38BD22
:1016D000704700BFE00E0020E40E0020084B1B689E
:1016E0001B6823B9074B4FF0FF321A607047044B59
:1016F0001B68DB68DB685A68024B1A60704700BFE2
:10170000F80E0020D00F00202DE9F047074698463C
:10171000089DDDF824900A9C266B02F18042013A74
:1017200006EB820626F007064FF0000CBCF10F0F07
:1017300009D811F80C2004EB0C0383F8342012B103
:101740000CF1010CF2E7002384F84330062D00D998
:101750000625E56265644FF0000AC4F848A0201D24
:10176000FFF72EFD04F11800FFF72AFD2461C5F1F3
:101770000705A5616462C4F84CA084F850A04246F5
:1017800039463046FFF786FD2060B9F1000F01D0E1
:10179000C9F80040BDE8F08738B5002407E004EB45
:1017A000840293000E481844FFF7FFFC0134062C16
:1017B000F5D90C4D2846FFF7F8FC0B4C2046FFF7F7
:1017C000F4FC0A48FFF7F1FC0948FFF7EEFC094872
:1017D000FFF7EBFC084B1D60084B1C6038BD00BFD9
:1017E000000F0020A40F0020B80F0020D80F002009
:1017F00004100020F00F0020F80E0020FC0E002046
:1018000010B50446FFF76EFD214A136801331360DB
:10181000204B1B685BB1204B1B686BB91D4B1B68D1
:10182000DA6AE36A9A4207D81A4B1C6004E0194B43
:101830001C601368012B28D0184A13680133136009
:10184000E06A01238340164A11680B43136000EBE2
:101850008000211D134B03EB8000FFF7B4FCFFF762
:1018600063FD0D4B1B687BB10A4B1B68DA6AE36AA8
:101870009A4209D24FF0E0234FF08052C3F8042D72
:10188000BFF34F8FBFF36F8F10BDFFF785FFD3E717
:101890008C0F0020F40E0020EC0F00209C0F002085
:1018A000A00F0020000F002010B5044690F8513022
:1018B00063B1012B11D0022B0ED04FF0A00383F3A4
:1018C0001188BFF36F8FBFF34F8FFEE7006BFFF7F9
:1018D000CDFE2046FFF7CAFE10BDFFF7C7FEFBE7AF
:1018E0000F4B1B68D3B110B5FFF7FCFC0D4BDB6849
:1018F000DC68201DFFF78BFC0B4A1368013B13606B
:10190000074A1368013B1360FFF70EFD2046FFF7FF
:10191000CBFF034B1B68002BE6D110BD704700BF07
:10192000900F0020041000208C0F002008B5FFF756
:10193000D7FF074B1B68012BF9D94FF0E0234FF07D
:101940008052C3F8042DBFF34F8FBFF36F8FEEE7C4
:10195000000F002070B504460D461D4B1E681D4B40
:1019600018680430FFF753FC48B91A4B1B68DB6A50
:1019700001229A4018490B6823EA02030B60B4F174
:10198000FF3F0DD03444134B1B685C60A64210D956
:10199000124B18680F4B19680431FFF71FFC70BD1C
:1019A000002DEFD00B4B196804310D48FFF70BFCED
:1019B000F5E70C4B1868074B19680431FFF70EFC6C
:1019C000094B1B68A342EAD9074B1C60E7E700BF3D
:1019D00018100020F40E0020A00F0020FC0E0020A4
:1019E000F00F0020F80E0020D00F002030B587B097
:1019F0000B9C7CB10C9DB5B154250495049D542DD0
:101A00001AD04FF0A00383F31188BFF36F8FBFF399
:101A10004F8FFEE74FF0A00383F31188BFF36F8F62
:101A2000BFF34F8FFEE74FF0A00383F31188BFF39E
:101A30006F8FBFF34F8FFEE70C9D2C63022485F858
:101A4000514000240394029505AC01940A9C009433
:101A5000FFF75AFE0C98FFF7D3FE059807B030BD8C
:101A60002DE9F04385B00746884614461E4690008F
:101A7000FFF784FD00B381465420FFF77FFD054644
:101A8000B0B1C0F83090E5B1002385F85130039330
:101A900002950D9B01930C9B0093334622464146D1
:101AA0003846FFF731FE2846FFF7AAFE012005E081
:101AB0004846FFF7DBFDE6E74FF0FF3005B0BDE835
:101AC000F0834FF0FF30F9E710B588B0002405949B
:101AD000069407AA06A905A8FEF778FB059B0293C2
:101AE000069B019300942346079A0E490E48FFF780
:101AF0007DFF0E4B186090B14FF0A00383F3118867
:101B0000BFF36F8FBFF34F8F094B4FF0FF321A6057
:101B1000084B01221A60084B1C60FFF76DFC08B0EF
:101B200010BD00BFC01F00082D190008CC0F0020F9
:101B3000D00F0020EC0F002018100020024A13687C
:101B400001331360704700BF980F0020F8B53A4B7F
:101B50001B68002B64D1394B1D6801351D60C5B968
:101B6000374B1B681B6843B14FF0A00383F3118808
:101B7000BFF36F8FBFF34F8FFEE7314A1168314BD0
:101B8000186810601960304A136801331360FFF75A
:101B9000A5FD2E4B1B68AB4238D900272C4B1B6888
:101BA000DB6A03EB83039A002A4B9B58012B3CD939
:101BB00001273AE00127224B1B681B6843B3204BE7
:101BC0001B68DB68DC6863689D4226D3261D3046AF
:101BD000FFF71DFBA36A1BB104F11800FFF717FB09
:101BE000E36A01229A401C49086802430A6003EB39
:101BF00083039A00314617481044FFF7E4FAE26A7B
:101C0000134B1B68DB6A9A42D4D2D4E70027D2E791
:101C10000E4B4FF0FF321A60C0E70C4A1360BDE76D
:101C20000E4A13680133136000270D4B1B6803B184
:101C300001273846F8BD00BF980F0020181000207B
:101C4000F80E0020FC0E0020D40F0020D00F002042
:101C5000F40E0020000F0020A00F0020940F0020A1
:101C60001C10002038B5354B1B6843B94FF0A0035A
:101C700083F31188BFF36F8FBFF34F8FFEE7FFF73A
:101C800031FB2E4B1A68013A1A601B68002B4FD1AA
:101C90002B4B1B680BB900244BE00024294B1B681D
:101CA0001BB3284BDB68DC6804F11800FFF7AFFAC0
:101CB000251D2846FFF7ABFAE06A01238340224A3C
:101CC00011680B43136000EB800029461F4B03EBA8
:101CD0008000FFF778FAE26A1D4B1B68DB6A9A42C4
:101CE000DCD31C4B01221A60D8E70CB1FFF7F6FCDD
:101CF000194B1C6884B9174B1C68D4B14FF0E02312
:101D00004FF08052C3F8042DBFF34F8FBFF36F8F96
:101D100001240EE0013C07D0FFF718FF0028F9D09E
:101D20000C4B01221A60F5E70B4B00221A60E2E728
:101D30000024FFF7F9FA204638BD00BF980F0020B5
:101D40008C0F0020D80F0020A00F0020000F0020D3
:101D5000F40E00201C100020940F002010B5A8B134
:101D60000446104B1B6843B14FF0A00383F3118866
:101D7000BFF36F8FBFF34F8FFEE7FFF7DFFE00214A
:101D80002046FFF7E7FDFFF76DFF48B94FF0E0236E
:101D90004FF08052C3F8042DBFF34F8FBFF36F8F06
:101DA00010BD00BF980F0020204B1B681BB1204BBB
:101DB00001221A6070471E4B00221A601D4B1B68DF
:101DC000B3FA83F3DBB2C3F11F0303EB83018A0091
:101DD00019498A5842B94FF0A00383F31188BFF321
:101DE0006F8FBFF34F8FFEE7134903EB8300820031
:101DF0000A4450684068506003EB830C4FEA8C0241
:101E000008321144884209D003EB83039A000A4B3D
:101E100013445B68DA68094B1A6070474068624691
:101E20009100054A0A445060EEE700BF980F002079
:101E30001C100020A00F0020000F0020F40E002036
:101E400070B50D4E0D4D761BB61006D0002455F81A
:101E5000043B01349847A642F9D1094E094D00F0E0
:101E600065F8761BB61006D0002455F8043B013403
:101E70009847A642F9D170BDC81F0008C81F0008C6
:101E8000CC1F0008C81F0008830730B548D0541E77
:101E9000002A3FD00346CAB201E0013C3AD303F81E
:101EA000012B9D07F9D1032C2DD9CDB245EA05258B
:101EB0000F2C45EA054536D9A4F1100222F00F0C8B
:101EC00003F1200EE6444FEA121C03F1100242E92E
:101ED000045542E9025510327245F8D10CF1010265
:101EE00014F00C0F03EB021204F00F0C13D0ACF142
:101EF000040323F003030433134442F8045B9342C6
:101F0000FBD10CF003042CB1C9B21C4403F8011B33
:101F10009C42FBD130BD64461346002CF4D1F9E756
:101F200003461446BFE71A46A446E0E7F8B500BFEB
:101F3000F8BC08BC9E467047F8B500BFF8BC08BCAA
:041F40009E46704702
:101F4400881F00089D010008000000000000000038
:101F54008000000000000000000000007C1F00085A
:101F6400B50100080000000000000000800000002F
:101F740000000000000000006D795461736B303282
:101F84000000000064656661756C745461736B00D5
:101F94000000000000000000010203040607080915
:101FA40000000000010203040203040506070809F7
:101FB4000A0B0C0D0E0F10100102000049444C4591
:041FC4000000000019
:041FC8007901000893
:041FCC0051010008B7
:101FD0000024F4000100000010000000AAAAAAAA30
:040000050800047576
:00000001FF
